:100000000C947C000C94A4000C94A4000C94A40008
:100010000C94A4000C94A4000C94A4000C94A400D0
:100020000C94A4000C94A4000C94A4000C94A400C0
:100030000C94A4000C94A4000C94A4000C94A400B0
:100040000C94FE0B0C94A4000C94D5090C94270A74
:100050000C94A4000C94A4000C94A4000C94A40090
:100060000C94AE050C94A400084AD73B3BCE016E1D
:1000700084BCBFFDC12F3D6C74319ABD56833DDAFF
:100080003D00C77F11BED9E4BB4C3E916BAAAABE0E
:10009000000000803F00000000240027002A00002C
:1000A000000000250028002B00000000002300268F
:1000B00000290004040404040404040202020202ED
:1000C000020303030303030102040810204080011C
:1000D000020408102001020408102000000007009C
:1000E0000201000003040600000000000000000000
:1000F000C2004A04960BBB0011241FBECFEFD8E00C
:10010000DEBFCDBF11E0A0E0B1E0E8E5FFE102C055
:1001100005900D92A235B107D9F713E0A2E5B1E041
:1001200001C01D92A339B107E1F710E0C6EFD0E09E
:1001300004C02297FE010E949B0FC03FD107C9F760
:100140000E94ED0B0C949F0F0C94000081309105E0
:1001500041F46F5F7F4F71F482E591E00E94D0011E
:100160000895892B39F46F5F7F4F21F482E591E088
:100170000E942101089580E090E06FEF7FEF0E94E0
:10018000A600089581E090E06FEF7FEF0E94A60047
:1001900008950F931F9302E511E0C8010E944501E5
:1001A000C8010E942201AB01BC0188E693E022E075
:1001B00030E00E94AE091F910F9108950F931F9395
:1001C000DF93CF93CDB7DEB7CE5CD0400FB6F894B7
:1001D000DEBF0FBECDBF88E693E040E855E260E0A9
:1001E00070E00E94620A88E693E060E071E00E949D
:1001F000C1098E010F5F1F4FC8010E94D001A2E507
:10020000B1E0F8018EEC01900D928150E1F7CE0142
:1002100001960E94210182E591E00E94D30188E6C7
:1002200093E062E171E00E94C109C253DF4F0FB653
:10023000F894DEBF0FBECDBFCF91DF911F910F911C
:10024000089508950F931F93CF93DF938C0160E07F
:1002500070E080E090E0C0E0D0E0F80124813581DA
:10026000468157810E94820C21960C5F1F4FC2333A
:10027000D10599F720E030E048E452E40E944C0DAB
:10028000DF91CF911F910F9108958F929F92AF921E
:10029000BF92CF92DF92EF92FF920F931F93DF9363
:1002A000CF93CDB7DEB72C970FB6F894DEBF0FBE55
:1002B000CDBF4C01CE010196B4010E94A4036D8113
:1002C0007E818F81988529813A814B815C810E9452
:1002D000F50C5B016C0120E030E040E050E00E9452
:1002E000480D882354F4C601B5012BED3FE049ECDD
:1002F00050E40E94820C5B016C01C601B5012BED3C
:100300003FE049EC50E40E94BC0E181654F4C601BC
:10031000B5012BED3FE049EC50E40E94810C5B01FC
:100320006C013CECE32EF12CE80CF91CF701008188
:1003300011810F5F1F4FC801880F991F880F991FE8
:10034000880E991EC601B50120E030E044E353E475
:100350000E94C70E2BED3FE049E450E40E944C0D93
:10036000F4016083718382839383C80162E370E048
:100370000E94500FF701918380832C960FB6F8945A
:10038000DEBF0FBECDBFCF91DF911F910F91FF90C8
:10039000EF90DF90CF90BF90AF909F908F90089597
:1003A0000E94180208950F931F93DF93CF9300D0FC
:1003B00000D0CDB7DEB78C01FC0180E090E020E0FA
:1003C00030E040E050E02483358346835783019634
:1003D000349682339105B9F704531F4FF801118207
:1003E00010820C5C104086E692E00E94EA04CE0186
:1003F00001960E94180289819A81AB81BC81F80123
:1004000080839183A283B383C8014EEA57E461E6F7
:100410007FE30E944802C80160E00E9441020F9001
:100420000F900F900F90CF91DF911F910F91089532
:10043000FC0180E090E0A0E8BFE380839183A28389
:10044000B3830895EF92FF920F931F93162F042FFB
:1004500086E6E82E82E0F82EC7016EE170E00E9489
:100460001004C701612F0E949204C701602F0E94EF
:100470009204C7010E94D5041F910F91FF90EF9045
:100480000895462F62E070E050E00E942202089535
:10049000EF92FF920F931F93CF93DF93EC017A01BA
:1004A0008B01CB01BA012EEA37E441E65FE30E94FB
:1004B000480D882351F488E491EEAAE3BFE38883D2
:1004C0009983AA83BB8340E08FC0C801B70126E6A9
:1004D00036E646EA5FE30E94480D882351F48FE137
:1004E00095E8ABE6BFE388839983AA83BB8341E0A9
:1004F0007BC0C801B70123E333E343EF5FE30E940E
:10050000480D882351F486EF98E2ACE9BFE3888375
:100510009983AA83BB8342E067C0C801B70120E08A
:1005200030E040E250E40E94480D882351F48CE50D
:100530009FE8A2ECBFE388839983AA83BB8343E04F
:1005400053C0C801B70120E030E040E850E40E9409
:10055000480D882351F48EEA97E4A1E1B0E4888342
:100560009983AA83BB8344E03FC0C801B70126E654
:1005700036E646E950E40E94480D882351F48AE0AB
:1005800097EDA3E2B0E488839983AA83BB8345E017
:100590002BC0C801B70123E333E343EB50E40E94CF
:1005A000480D882351F485E89BEEA1E4B0E48883EC
:1005B0009983AA83BB8346E017C0C801B7012AE923
:1005C00039E941E051E40E94480D882351F483E366
:1005D00093E3ABE8B0E488839983AA83BB8347E0C5
:1005E00003C081E090E009C04295440F407ECE01F7
:1005F00061E070E050E00E942202DF91CF911F91F4
:100600000F91FF90EF9008958F929F92AF92BF92BB
:10061000DF92EF92FF920F931F93DF93CF93CDB7AB
:10062000DEB7F62E8A018DB69EB686E692E06EE1C2
:1006300070E00E94100486E692E06F2D0E94920402
:1006400086E692E00E94D50486E692E06EE170E0D4
:100650000E94100486E692E06EE170E0A8010E941C
:10066000E6048DB79EB7801B910B0FB6F8949EBF22
:100670000FBE8DBFEDB6FEB60894E11CF11C86E6F8
:1006800092E00E941A045C018017910781F4DD2436
:1006900009C086E692E00E9423040E0D1F1DF8019A
:1006A0008083D3940D2D10E00A151B0594F386E684
:1006B00092E00E94D504C7010FB6F8949EBE0FBE0B
:1006C0008DBECF91DF911F910F91FF90EF90DF9042
:1006D000BF90AF909F908F900895DF93CF9300D0FD
:1006E00000D000D0CDB7DEB763E070E046E050E068
:1006F0000E940403FC01218130E0908180E0282BDE
:10070000392B948180E0458150E0482B592B928110
:1007100080E0638170E0682B792B7E836D835C833E
:100720004B833A8329838A819C81EE81382F592F0C
:100730007E2F80E090E026960FB6F894DEBF0FBEC5
:10074000CDBFCF91DF910895CF92DF92EF92FF92CC
:100750000F931F93DF93CF93CDB7DEB72C970FB6D0
:10076000F894DEBF0FBECDBF6C018B01CB010E94A0
:100770006D032F83388749875A876B877C87DE0113
:100780001196FE01379686E001900D928150E1F7B7
:10079000F801E080F1800281138169817A818827E4
:1007A00077FD8095982F0E94E70DA80197010E9480
:1007B000C70EF60160837183828393836D817E818E
:1007C000882777FD8095982F0E94E70DA801970153
:1007D0000E94C70EF60160877187828793876B81BD
:1007E0007C81882777FD8095982F0E94E70DA801CE
:1007F00097010E94C70EF6016483758386839783F1
:10080000C6012C960FB6F894DEBF0FBECDBFCF91B8
:10081000DF911F910F91FF90EF90DF90CF9008959F
:1008200081E080936502609342021092630210920D
:10083000640208952091410230E080914002281B1B
:100840003109C90108954091400280914102481741
:1008500018F02FEF3FEF0AC0E42FF0E0E05EFD4F0D
:100860008081282F30E04F5F40934002C9010895F6
:10087000E091400280914102E81718F0EFEFFFEF9E
:1008800006C0F0E0E05EFD4F8081E82FF0E0CF0190
:1008900008950895109269021092680288EE93E01C
:1008A000A0E0B0E080936A0290936B02A0936C0288
:1008B000B0936D0286E391E09093670280936602A5
:1008C0000895CF92DF92EF92FF920F931F93CF93F1
:1008D000DF937C016B018A01809165028823A1F07E
:1008E000C0E0D0E00DC0D701ED91FC91D601AC0F76
:1008F000BD1F0190F081E02DC7016C9109952196F3
:10090000C017D10780F304C0CB01642F0E94930568
:10091000C801DF91CF911F910F91FF90EF90DF9071
:10092000CF900895DF93CF930F92CDB7DEB7FC0140
:100930006983809165028823C9F0809164028032C6
:1009400038F081E090E09383828320E030E015C0AE
:1009500080916302E82FF0E0ED5BFD4F9981908379
:100960008F5F809363028093640205C0CE0101967D
:1009700061E00E94930521E030E0C9010F90CF9122
:10098000DF9108950F93062F8091420263E472E095
:100990004091640221E00E943E0510926302109291
:1009A0006402109265020F91089561E00E94C204F2
:1009B0000895413208F040E2862F60E272E00E9422
:1009C000F5041092400280934102089521E00E94B4
:1009D000D9040895109240021092410210926302CD
:1009E000109264020E943F070895382F413210F0A0
:1009F00040E042C0809172028823E1F791E0909339
:100A00007202209374028FEF8093DF0210929A0299
:100A1000415040939B024F5F909373028091730209
:100A2000330F832B8093730280917502813041F4E0
:100A300010927502809173028093BB0085EC01C017
:100A400085EE8093BC00809172028130E1F3809149
:100A50009A02841710F440919A0220E030E00AC014
:100A6000FB01E20FF31FD901A658BD4F8C91808383
:100A70002F5F3F4F2417A0F3842F08950F931F93E8
:100A8000582F122F413210F081E04AC0809172023B
:100A90008823E1F782E080937202009374028FEF63
:100AA0008093DF0210929A0240939B02AAE7B2E081
:100AB000FB0102C081918D938E2F861B8417D0F38A
:100AC0001092730280917302550F852B80937302ED
:100AD00080917502813041F4109275028091730209
:100AE0008093BB0085EC01C085EE8093BC00112390
:100AF00021F0809172028230E1F38091DF028F3F1A
:100B000011F480E00DC08091DF02803211F482E0A8
:100B100007C08091DF02803311F084E001C083E0E0
:100B20001F910F910895482F613210F081E00895D0
:100B300080917202843011F082E008956093BD02CA
:100B4000ACE9B2E0842F9C01F90102C081918D9340
:100B50008E2F841B8617D0F380E008951F920F928A
:100B60000FB60F9211242F933F934F935F936F9380
:100B70007F938F939F93AF93BF93EF93FF93809156
:100B8000B90090E0887F90708036910509F4F2C03A
:100B900081369105CCF58832910509F47BC0893204
:100BA0009105B4F48031910509F46FC0813191054C
:100BB0003CF4009709F447C1089709F04FC165C09C
:100BC0008831910509F466C0809709F047C182C059
:100BD0008034910509F4A4C08134910544F4803334
:100BE000910509F482C0C89709F038C189C08035E1
:100BF000910509F489C08835910509F496C08834B7
:100C0000910509F02BC1AEC08839910509F413C1D3
:100C100089399105ECF48837910509F4ABC089371F
:100C200091054CF48836910509F4A4C080379105EC
:100C300009F014C19FC08838910509F4FCC08039BF
:100C4000910509F49DC08038910509F007C198C04D
:100C5000803B910509F4C6C0813B91054CF4803A74
:100C6000910509F49FC0883A910509F0F7C0BAC010
:100C7000803C910509F4E3C0883C910509F4DFC08C
:100C8000883B910509F0EAC0C2C08091730280934D
:100C9000BB00CFC090919A0280919B02981768F494
:100CA00090919A02E92FF0E0E658FD4F8081809301
:100CB000BB009F5F90939A02BCC08091740288230E
:100CC00009F44BC085ED8093BC008091BC0084FD8D
:100CD000FCCFC2C080E28093DF0285ED8093BC0030
:100CE0008091BC0084FDFCCFB7C080E38093DF021D
:100CF00085ED8093BC008091BC0084FDFCCFACC02E
:100D000088E38093DF029BC080919A029091BB00A0
:100D1000E82FF0E0E658FD4F90838F5F80939A02B2
:100D200090919A0280919B0282C080919A02909148
:100D3000BB00E82FF0E0E658FD4F90838F5F809373
:100D40009A0280917402882341F085ED8093BC0063
:100D50008091BC0084FDFCCF7FC081E08093750250
:100D600084EA6EC085ED8093BC008091BC0084FD58
:100D7000FCCF72C083E0809372021092DE0259C0F1
:100D80008091DE02803208F056C08091DE029091A0
:100D9000BB00E82FF0E0E254FD4F90838F5F80931B
:100DA000DE0247C08091DE02803230F4E091DE0244
:100DB000F0E0E254FD4F108285ED8093BC008091FD
:100DC000BC0084FDFCCF109272026091DE02E091C3
:100DD0007802F09179028EEB92E070E00995109222
:100DE000DE022DC084E0809372021092BC02109249
:100DF000BD02E0917602F091770209958091BD02E3
:100E0000882329F481E08093BD0210929C02909186
:100E1000BC02E92FF0E0E456FD4F80818093BB00D7
:100E20009F5F9093BC029091BC028091BD02981785
:100E300010F485EC01C085E88093BC000FC085EC00
:100E40008093BC0009C01092DF0285ED8093BC0046
:100E50008091BC0084FDFCCF10927202FF91EF9153
:100E6000BF91AF919F918F917F916F915F914F91C2
:100E70003F912F910F900FBE0F901F9018951092D9
:100E8000720281E0809374021092750282E161E047
:100E90000E945D0783E161E00E945D07E9EBF0E0FD
:100EA00080818E7F808380818D7F808388E48093A2
:100EB000B80085E48093BC000895482F50E0CA0133
:100EC00085529F4FFC012491CA0189539F4FFC0119
:100ED00094914D545F4FFA013491332309F440C08B
:100EE000222351F1233071F0243028F42130A1F075
:100EF000223011F514C02630B1F02730C1F0243073
:100F0000D9F404C0809180008F7703C08091800065
:100F10008F7D8093800010C084B58F7702C084B528
:100F20008F7D84BD09C08091B0008F7703C0809110
:100F3000B0008F7D8093B000E32FF0E0EE0FFF1F35
:100F4000E156FF4FA591B4912FB7F894662321F491
:100F50008C919095892302C08C91892B8C932FBF03
:100F60000895CF92DF92EF92FF920F931F93CF934A
:100F7000DF937C016B018A01C0E0D0E00FC0D60195
:100F80006D916D01D701ED91FC910190F081E02D03
:100F9000C7010995C80FD91F01501040011511054F
:100FA00071F7CE01DF91CF911F910F91FF90EF90DC
:100FB000DF90CF900895EF92FF920F931F938C01D3
:100FC000DC01ED91FC910190F081E02D6DE009953F
:100FD0007C01D801ED91FC910190F081E02DC801D8
:100FE0006AE009959C012E0D3F1DC9011F910F91CB
:100FF000FF90EF900895CF93DF93EC016115710599
:1010000019F420E030E00FC0DB010D900020E9F77B
:101010001197A61BB70BE881F9810280F381E02DBF
:10102000AD0109959C01C901DF91CF9108954F92BF
:101030005F927F928F929F92AF92BF92CF92DF92F8
:10104000EF92FF920F931F93DF93CF93CDB7DEB74D
:10105000A1970FB6F894DEBF0FBECDBF2C01742E42
:10106000CB01223008F42AE019A231E2C32ED12CA0
:10107000CC0EDD1E822E9924AA24BB24672D752F49
:10108000A50194010E94630F79018A01C801B7018B
:10109000A50194010E94310F472D461B0894C108F9
:1010A000D1084A3014F4405D01C0495CF601408328
:1010B000E114F1040105110521F07E2C5F2DC8011A
:1010C000DDCFC201B6010E94FB07A1960FB6F894CE
:1010D000DEBF0FBECDBFCF91DF911F910F91FF906B
:1010E000EF90DF90CF90BF90AF909F908F907F90C8
:1010F0005F904F900895DC012115310541F4ED9189
:10110000FC910190F081E02D642F099508950E94D3
:1011100017080895CF92DF92EF92FF920F931F93DB
:10112000CF93DF93EC016A017B012115310541F476
:10113000E881F9810190F081E02D642F09951FC0AD
:101140002A303105D1F477FF17C0E881F981019089
:10115000F081E02D6DE209958C0144275527BA01F5
:101160004C195D096E097F09CE012AE00E9417081B
:101170009801280F391F04C02AE00E9417089C011B
:10118000C901DF91CF911F910F91FF90EF90DF90F8
:10119000CF9008957F928F929F92AF92BF92CF92FD
:1011A000DF92EF92FF920F931F93CF93DF934C0147
:1011B0007A018B01722ECB01BA01A80197010E941E
:1011C0002D0F882321F0C40164E271E021C0C0E04A
:1011D000D0E057016801E894D7F8C601B5012FEFB8
:1011E0003FEF4FE75FE70E942D0F882351F4C601C0
:1011F000B5012FEF3FEF4FE75FE70E94480D18164C
:1012000014F0C1E0D0E0219739F0C40168E271E048
:101210000E94FB07EC0193C0C801B7012FEF3FEF1D
:101220004FE75FE40E94BC0E181654F0C801B701E6
:101230002FEF3FEF4FE75FEC0E94480D882324F427
:10124000C4016CE271E0E4CFC801B70120E030E0F6
:1012500040E050E00E94480D87FD03C0C0E0D0E0B0
:101260000EC0D401ED91FC910190F081E02DC401FC
:101270006DE20995EC0117FB109517F9109520E028
:1012800030E040E05FE3DD240BC0CA01B90120E09B
:1012900030E040E251E40E944C0D9B01AC01D3943C
:1012A000D71498F3C801B7010E94820C5B016C014E
:1012B0000E94B90D7B018C01C401B801A7012AE08D
:1012C00030E00E947B08C80FD91F772039F0C40195
:1012D00060E371E00E94FB07C80FD91FC801B70186
:1012E0000E94E50D9B01AC01C601B5010E94810C75
:1012F00024C020E030E040E251E40E94C70E7B01B0
:101300008C010E94B40D5B016C01CC24B7FCC0942D
:10131000DC2CC401B601A5012AE030E00E948A0855
:10132000C80FD91FC601B5010E94E70D9B01AC0192
:10133000C801B7010E94810C7A947720D1F6CE01C2
:10134000DF91CF911F910F91FF90EF90DF90CF90A1
:10135000BF90AF909F908F907F900895EF92FF92F3
:101360000F931F937C010E94CA088C01C7010E9441
:10137000DB07080F191FC8011F910F91FF90EF9015
:101380000895EF92FF920F931F937C010E94FB0739
:101390008C01C7010E94DB07080F191FC8011F91AC
:1013A0000F91FF90EF90089508951F920F920FB63E
:1013B0000F9211242F933F934F938F939F93EF930B
:1013C000FF938091C00082FD1DC04091C600209116
:1013D0002003309121032F5F3F4F2F733070809196
:1013E0002203909123032817390771F0E09120031D
:1013F000F0912103E052FD4F40833093210320936D
:10140000200302C08091C600FF91EF919F918F91C0
:101410004F913F912F910F900FBE0F901F901895F5
:10142000E0917403F0917503E05CFF4F819191911D
:1014300020813181805C9F4F821B930B60E470E0C0
:101440000E94500F892B11F00E94D40908951F9219
:101450000F920FB60F9211242F933F938F939F9368
:10146000EF93FF93209164033091650380916603AD
:10147000909167032817390731F48091C1008F7D5F
:101480008093C10014C0E0916603F0916703EC5DA6
:10149000FC4F2081809166039091670301968F73C2
:1014A000907090936703809366032093C600FF912A
:1014B000EF919F918F913F912F910F900FBE0F90C1
:1014C0001F901895AF92BF92DF92EF92FF920F9309
:1014D0001F93CF93DF93EC017A018B01DD24403021
:1014E00081EE580780E0680780E0780711F0DD247E
:1014F000D39491E0A92EB12CEC89FD89DD2069F00F
:10150000C50108A002C0880F991F0A94E2F78083E2
:1015100060E079E08DE390E005C0108260E874E857
:101520008EE190E0A80197010E94630F21503040A6
:1015300040405040569547953795279580E120309B
:10154000380720F0DD2011F0DD24D6CFE889F989B5
:101550003083EA89FB89208319A2EE89FF894081C3
:1015600021E030E0C9010C8C02C0880F991F0A9459
:10157000E2F7482B4083EE89FF894081C9010D8C39
:1015800002C0880F991F0A94E2F7482B4083EE8926
:10159000FF894081C9010E8C02C0880F991F0A94EF
:1015A000E2F7482B4083EE89FF8980810F8C02C0CF
:1015B000220F331F0A94E2F7209528232083DF911E
:1015C000CF911F910F91FF90EF90DF90BF90AF9060
:1015D0000895DC011C96ED91FC911D97E05CFF4F96
:1015E0008191919120813181805C9F4F821B930B6F
:1015F00060E470E00E94500F0895DC011C96ED91AC
:10160000FC911D97E05CFF4F20813181E054F04058
:10161000DF01AE5BBF4F8D919C9111972817390761
:1016200019F42FEF3FEF07C08D919C91E80FF91F40
:101630008081282F30E0C9010895DC011C96ED91CE
:10164000FC911D97E05CFF4F20813181E054F04018
:10165000DF01AE5BBF4F8D919C9111972817390721
:1016600019F42FEF3FEF10C08D919C911197E80F67
:10167000F91F20818D919C91119701968F73907025
:1016800011969C938E9330E0C9010895DC019196E8
:101690008C919197882339F05496ED91FC91559750
:1016A000808186FFF9CF91961C920895CF93DF93A6
:1016B000EC01EE85FF85E05CFF4F20813181E05435
:1016C000F0402F5F3F4F2F733070DF01AE5BBF4F95
:1016D0008D919C91119728173907D1F3E05CFF4F4A
:1016E00080819181E054F040E80FF91F6083EE851E
:1016F000FF85E05CFF4F31832083EE89FF892081E5
:1017000081E090E00F8C02C0880F991F0A94E2F7E5
:10171000282B208381E089A3EC89FD898081806466
:10172000808381E090E0DF91CF91089510926B0368
:1017300010926A0388EE93E0A0E0B0E080936C031F
:1017400090936D03A0936E03B0936F0386E491E0D2
:10175000909369038093680380EE92E09093750301
:101760008093740384E293E09093770380937603ED
:1017700085EC90E0909379038093780384EC90E07B
:1017800090937B0380937A0380EC90E090937D03A9
:1017900080937C0381EC90E090937F0380937E03A1
:1017A00082EC90E0909381038093800386EC90E03C
:1017B000909383038093820384E08093840383E087
:1017C0008093850387E08093860385E08093870379
:1017D00081E08093880308950895CF93DF930E945A
:1017E000460C0E94EC0B0E94DE00C0E1DAE00E9491
:1017F000C9002097E1F30E94100AF9CF1F920F92BF
:101800000FB60F9211242F933F938F939F93AF9313
:10181000BF9380918E0390918F03A0919003B0911C
:101820009103309192030196A11DB11D232F2D5FCD
:101830002D3720F02D570196A11DB11D2093920345
:1018400080938E0390938F03A0939003B0939103A2
:1018500080918A0390918B03A0918C03B0918D03AA
:101860000196A11DB11D80938A0390938B03A093D1
:101870008C03B0938D03BF91AF919F918F913F9156
:101880002F910F900FBE0F901F901895789484B5EC
:10189000826084BD84B5816084BD85B5826085BD6C
:1018A00085B5816085BDEEE6F0E080818160808352
:1018B000E1E8F0E010828081826080838081816035
:1018C0008083E0E8F0E0808181608083E1EBF0E0FC
:1018D000808184608083E0EBF0E0808181608083A0
:1018E000EAE7F0E080818460808380818260808389
:1018F0008081816080838081806880831092C100B4
:1019000008955058BB27AA270ED0FCC1EDD130F066
:10191000F2D120F031F49F3F11F41EF4BDC10EF45A
:10192000E095E7FBB3C1E92FFED180F3BA17620758
:1019300073078407950718F071F49EF516C20EF42C
:10194000E0950B2EBA2FA02D0B01B90190010C01CF
:10195000CA01A0011124FF27591B99F0593F50F4E7
:10196000503E68F11A16F040A22F232F342F44273F
:10197000585FF3CF469537952795A795F040539537
:10198000C9F77EF41F16BA0B620B730B840BBAF007
:101990009150A1F0FF0FBB1F661F771F881FC2F772
:1019A0000EC0BA0F621F731F841F48F48795779586
:1019B0006795B795F7959E3F08F0B3CF9395880F3D
:1019C00008F09927EE0F9795879508958DD158F0D7
:1019D00080E891E009F49EEF8ED128F040E851E0D4
:1019E00059F45EEF09C058C1C0C1E92FE0789BD11E
:1019F00068F3092E052AC1F3261737074807590748
:101A000038F00E2E07F8E02569F0E025E0640AC002
:101A1000EF6307F8009407FADB01B9019D01DC01CF
:101A2000CA01AD01EF9347D06DD10AD05F91552324
:101A300031F02BED3FE049E450FD49EC63CF0895D0
:101A4000DF93DD27B92FBF7740E85FE3161617064F
:101A500048075B0710F4D92F93D19F938F937F93FF
:101A60006F93F8D1E8E6F0E01AD14CD12F913F9175
:101A70004F915F9198D1DD2349F09058A2EA2AED69
:101A80003FE049EC5FE3D0785D274DDFDF913AC15D
:101A9000D9D008F481E008950CD034C12CD140F0A5
:101AA00023D130F021F45F3F19F0F0C051115EC135
:101AB000F3C039D198F39923C9F35523B1F3951B9A
:101AC000550BBB27AA2762177307840738F09F5F5F
:101AD0005F4F220F331F441FAA1FA9F333D00E2ECE
:101AE0003AF0E0E830D091505040E695001CCAF73B
:101AF00029D0FE2F27D0660F771F881FBB1F261700
:101B000037074807AB07B0E809F0BB0B802DBF01D2
:101B1000FF2793585F4F2AF09E3F510568F0B6C0EB
:101B200025C15F3FECF3983EDCF38695779567958A
:101B3000B795F7959F5FC9F7880F911D9695879583
:101B400097F90895E1E0660F771F881FBB1F6217A2
:101B500073078407BA0720F0621B730B840BBA0B60
:101B6000EE1F88F7E095089504D06894B111FEC087
:101B70000895E1D088F09F5790F0B92F9927B75179
:101B8000A0F0D1F0660F771F881F991F1AF0BA9541
:101B9000C9F712C0B13081F0E8D0B1E00895E5C0D6
:101BA000672F782F8827B85F39F0B93FCCF3869537
:101BB00077956795B395D9F73EF490958095709594
:101BC00061957F4F8F4F9F4F0895E89409C097FB11
:101BD0003EF490958095709561957F4F8F4F9F4F04
:101BE0009923A9F0F92F96E9BB279395F695879548
:101BF00077956795B795F111F8CFFAF4BB0F11F40B
:101C000060FF1BC06F5F7F4F8F4F9F4F16C08823B1
:101C100011F096E911C0772321F09EE8872F762FE7
:101C200005C0662371F096E8862F70E060E02AF028
:101C30009A95660F771F881FDAF7880F9695879514
:101C400097F90895990F0008550FAA0BE0E8FEEFE9
:101C500016161706E807F907C0F012161306E40770
:101C6000F50798F0621B730B840B950B39F40A2669
:101C700061F0232B242B252B21F408950A2609F447
:101C8000A140A6958FEF811D811D089597F99F674B
:101C900080E870E060E008959FEF80EC0895DF93A6
:101CA000CF931F930F93FF92EF92DF927B018C01F2
:101CB000689405C0DA2EEF0176D0FE01E894A59174
:101CC0002591359145915591AEF3EF012CDEFE0142
:101CD0009701A801DA9479F7DF90EF90FF900F91C8
:101CE0001F91CF91DF91089500240A9416161706CC
:101CF00018060906089500240A94121613061406FD
:101D000005060895092E0394000C11F4882352F05F
:101D1000BB0F40F4BF2B11F460FF04C06F5F7F4F17
:101D20008F4F9F4F089557FD9058440F551F59F0FE
:101D30005F3F71F04795880F97FB991F61F09F3FB8
:101D400079F087950895121613061406551FF2CFE1
:101D50004695F1DF08C0161617061806991FF1CF31
:101D600086957105610508940895E894BB27662758
:101D70007727CB0197F9089565DF08F48FEF089571
:101D80009B01AC0160E070E080E89FE385CE0BD062
:101D9000B9CFAADF28F0AFDF18F0952309F076CF8E
:101DA0007BCF1124E3CFBFDFA0F3959FD1F3950F35
:101DB00050E0551F629FF001729FBB27F00DB11DCF
:101DC000639FAA27F00DB11DAA1F649F6627B00D5F
:101DD000A11D661F829F2227B00DA11D621F739F48
:101DE000B00DA11D621F839FA00D611D221F749F56
:101DF0003327A00D611D231F849F600D211D822F9D
:101E0000762F6A2F11249F5750408AF0E1F08823E3
:101E10004AF0EE0FFF1FBB1F661F771F881F9150F0
:101E20005040A9F79E3F510570F030CF9FCF5F3FE4
:101E3000ECF3983EDCF3869577956795B795F79523
:101E4000E7959F5FC1F7FE2B880F911D96958795AB
:101E500097F908959B01AC019ACFF4DE880B990B9A
:101E60000895629FD001739FF001829FE00DF11DE4
:101E7000649FE00DF11D929FF00D839FF00D749F04
:101E8000F00D659FF00D9927729FB00DE11DF91FB0
:101E9000639FB00DE11DF91FBD01CF01112408950D
:101EA00097FB092E07260AD077FD04D02ED006D046
:101EB00000201AF4709561957F4F0895F6F790957C
:101EC00081959F4F0895A1E21A2EAA1BBB1BFD010D
:101ED0000DC0AA1FBB1FEE1FFF1FA217B307E40709
:101EE000F50720F0A21BB30BE40BF50B661F771F61
:101EF000881F991F1A9469F7609570958095909541
:101F00009B01AC01BD01CF010895AA1BBB1B51E190
:101F100007C0AA1FBB1FA617B70710F0A61BB70B59
:101F2000881F991F5A95A9F780959095BC01CD01FE
:101F30000895EE0FFF1F0590F491E02D099410E035
:101F4000C6EFD0E004C0FE010E949B0F2296C83F5E
:081F5000D107C9F7F894FFCF97
:101F5800426567696E6E696E67207365747570286F
:101F6800290046696E697368696E672073657475C0
:101F7800702829006E616E00696E66006F766600D3
:101F88002E0000000000920461041A04230438049F
:101F9800490400000000560BB107E90A1D0BFD0AB1
:021FA800460BE6
:00000001FF
